{
  "contractName": "Election",
  "abi": [
    {
      "inputs": [],
      "stateMutability": "nonpayable",
      "type": "constructor"
    },
    {
      "anonymous": false,
      "inputs": [
        {
          "indexed": true,
          "internalType": "uint256",
          "name": "_candidateId",
          "type": "uint256"
        }
      ],
      "name": "Voted",
      "type": "event"
    },
    {
      "inputs": [],
      "name": "candidatesCount",
      "outputs": [
        {
          "internalType": "uint256",
          "name": "",
          "type": "uint256"
        }
      ],
      "stateMutability": "view",
      "type": "function",
      "constant": true
    },
    {
      "inputs": [],
      "name": "electionState",
      "outputs": [
        {
          "internalType": "enum Election.State",
          "name": "",
          "type": "uint8"
        }
      ],
      "stateMutability": "view",
      "type": "function",
      "constant": true
    },
    {
      "inputs": [],
      "name": "owner",
      "outputs": [
        {
          "internalType": "address",
          "name": "",
          "type": "address"
        }
      ],
      "stateMutability": "view",
      "type": "function",
      "constant": true
    },
    {
      "inputs": [],
      "name": "votersCount",
      "outputs": [
        {
          "internalType": "uint256",
          "name": "",
          "type": "uint256"
        }
      ],
      "stateMutability": "view",
      "type": "function",
      "constant": true
    },
    {
      "inputs": [],
      "name": "startElection",
      "outputs": [],
      "stateMutability": "nonpayable",
      "type": "function"
    },
    {
      "inputs": [],
      "name": "endElection",
      "outputs": [],
      "stateMutability": "nonpayable",
      "type": "function"
    },
    {
      "inputs": [
        {
          "internalType": "string",
          "name": "_name",
          "type": "string"
        }
      ],
      "name": "addCandidate",
      "outputs": [],
      "stateMutability": "nonpayable",
      "type": "function"
    },
    {
      "inputs": [
        {
          "internalType": "address",
          "name": "_voter",
          "type": "address"
        }
      ],
      "name": "addVoter",
      "outputs": [],
      "stateMutability": "nonpayable",
      "type": "function"
    },
    {
      "inputs": [
        {
          "internalType": "address",
          "name": "_current",
          "type": "address"
        }
      ],
      "name": "getRole",
      "outputs": [
        {
          "internalType": "uint256",
          "name": "",
          "type": "uint256"
        }
      ],
      "stateMutability": "view",
      "type": "function",
      "constant": true
    },
    {
      "inputs": [
        {
          "internalType": "uint256",
          "name": "_candidateId",
          "type": "uint256"
        }
      ],
      "name": "vote",
      "outputs": [],
      "stateMutability": "nonpayable",
      "type": "function"
    },
    {
      "inputs": [
        {
          "internalType": "uint256",
          "name": "_candidateId",
          "type": "uint256"
        }
      ],
      "name": "getCandidateDetails",
      "outputs": [
        {
          "internalType": "string",
          "name": "",
          "type": "string"
        },
        {
          "internalType": "uint256",
          "name": "",
          "type": "uint256"
        }
      ],
      "stateMutability": "view",
      "type": "function",
      "constant": true
    },
    {
      "inputs": [
        {
          "internalType": "uint256",
          "name": "_voterId",
          "type": "uint256"
        }
      ],
      "name": "getVoterDetails",
      "outputs": [
        {
          "internalType": "address",
          "name": "voter",
          "type": "address"
        }
      ],
      "stateMutability": "view",
      "type": "function",
      "constant": true
    }
  ],
  "bytecode": "0x6080604052600060055560006006553480156200001b57600080fd5b50336000806101000a81548173ffffffffffffffffffffffffffffffffffffffff021916908373ffffffffffffffffffffffffffffffffffffffff16021790555060008060146101000a81548160ff0219169083600281111562000084576200008362000361565b5b0217905550620000cf6040518060400160405280601281526020017f42656e6a616d696e204e6574616e7961687500000000000000000000000000008152506200011b60201b60201c565b620001156040518060400160405280600a81526020017f59616972204c61706964000000000000000000000000000000000000000000008152506200011b60201b60201c565b6200056f565b3373ffffffffffffffffffffffffffffffffffffffff1660008054906101000a900473ffffffffffffffffffffffffffffffffffffffff1673ffffffffffffffffffffffffffffffffffffffff1614620001ac576040517f08c379a0000000000000000000000000000000000000000000000000000000008152600401620001a390620003f1565b60405180910390fd5b60006002811115620001c357620001c262000361565b5b600060149054906101000a900460ff166002811115620001e857620001e762000361565b5b146200022b576040517f08c379a0000000000000000000000000000000000000000000000000000000008152600401620002229062000463565b60405180910390fd5b60405180606001604052806005548152602001828152602001600081525060016000600554815260200190815260200160002060008201518160000155602082015181600101908051906020019062000286929190620002b1565b506040820151816002015590505060056000815480929190620002a990620004be565b919050555050565b828054620002bf906200053a565b90600052602060002090601f016020900481019282620002e357600085556200032f565b82601f10620002fe57805160ff19168380011785556200032f565b828001600101855582156200032f579182015b828111156200032e57825182559160200191906001019062000311565b5b5090506200033e919062000342565b5090565b5b808211156200035d57600081600090555060010162000343565b5090565b7f4e487b7100000000000000000000000000000000000000000000000000000000600052602160045260246000fd5b600082825260208201905092915050565b7f4f6e6c79206f776e65722063616e206164642063616e64696461746573000000600082015250565b6000620003d9601d8362000390565b9150620003e682620003a1565b602082019050919050565b600060208201905081810360008301526200040c81620003ca565b9050919050565b7f456c656374696f6e2068617320616c7265616479207374617274656400000000600082015250565b60006200044b601c8362000390565b9150620004588262000413565b602082019050919050565b600060208201905081810360008301526200047e816200043c565b9050919050565b7f4e487b7100000000000000000000000000000000000000000000000000000000600052601160045260246000fd5b6000819050919050565b6000620004cb82620004b4565b91507fffffffffffffffffffffffffffffffffffffffffffffffffffffffffffffffff82036200050057620004ff62000485565b5b600182019050919050565b7f4e487b7100000000000000000000000000000000000000000000000000000000600052602260045260246000fd5b600060028204905060018216806200055357607f821691505b6020821081036200056957620005686200050b565b5b50919050565b611751806200057f6000396000f3fe608060405234801561001057600080fd5b50600436106100b45760003560e01c806359f784681161007157806359f784681461018e57806362d73eb8146101985780637b8fe166146101a25780638da5cb5b146101d257806398c07938146101f0578063f4ab9adf1461020e576100b4565b80630121b93f146100b95780632280043d146100d557806327f9fd50146100f35780632d35a8a2146101245780634427673314610142578063462e91ec14610172575b600080fd5b6100d360048036038101906100ce9190610e01565b61022a565b005b6100dd6104be565b6040516100ea9190610ea5565b60405180910390f35b61010d60048036038101906101089190610e01565b6104d1565b60405161011b929190610f68565b60405180910390f35b61012c6105e7565b6040516101399190610f98565b60405180910390f35b61015c60048036038101906101579190611011565b6105ed565b6040516101699190610f98565b60405180910390f35b61018c60048036038101906101879190611173565b6106b0565b005b610196610836565b005b6101a06108fb565b005b6101bc60048036038101906101b79190610e01565b6109c0565b6040516101c991906111cb565b60405180910390f35b6101da610a50565b6040516101e791906111cb565b60405180910390f35b6101f8610a74565b6040516102059190610f98565b60405180910390f35b61022860048036038101906102239190611011565b610a7a565b005b6001600281111561023e5761023d610e2e565b5b600060149054906101000a900460ff1660028111156102605761025f610e2e565b5b146102a0576040517f08c379a000000000000000000000000000000000000000000000000000000000815260040161029790611232565b60405180910390fd5b600460003373ffffffffffffffffffffffffffffffffffffffff1673ffffffffffffffffffffffffffffffffffffffff16815260200190815260200160002060009054906101000a900460ff1661032c576040517f08c379a00000000000000000000000000000000000000000000000000000000081526004016103239061129e565b60405180910390fd5b600260003373ffffffffffffffffffffffffffffffffffffffff1673ffffffffffffffffffffffffffffffffffffffff16815260200190815260200160002060009054906101000a900460ff16156103b9576040517f08c379a00000000000000000000000000000000000000000000000000000000081526004016103b09061130a565b60405180910390fd5b600081101580156103cb575060055481105b61040a576040517f08c379a000000000000000000000000000000000000000000000000000000000815260040161040190611376565b60405180910390fd5b600160008281526020019081526020016000206002016000815480929190610431906113c5565b91905055506001600260003373ffffffffffffffffffffffffffffffffffffffff1673ffffffffffffffffffffffffffffffffffffffff16815260200190815260200160002060006101000a81548160ff021916908315150217905550807f7f511e347bf51eed3be100b3194247d5207f05f3b33de7d31e3e8ee73199a04960405160405180910390a250565b600060149054906101000a900460ff1681565b606060008083101580156104e6575060055483105b610525576040517f08c379a000000000000000000000000000000000000000000000000000000000815260040161051c90611376565b60405180910390fd5b60016000848152602001908152602001600020600101600160008581526020019081526020016000206002015481805461055e9061143c565b80601f016020809104026020016040519081016040528092919081815260200182805461058a9061143c565b80156105d75780601f106105ac576101008083540402835291602001916105d7565b820191906000526020600020905b8154815290600101906020018083116105ba57829003601f168201915b5050505050915091509150915091565b60055481565b60008173ffffffffffffffffffffffffffffffffffffffff1660008054906101000a900473ffffffffffffffffffffffffffffffffffffffff1673ffffffffffffffffffffffffffffffffffffffff160361064b57600190506106ab565b600460008373ffffffffffffffffffffffffffffffffffffffff1673ffffffffffffffffffffffffffffffffffffffff16815260200190815260200160002060009054906101000a900460ff16156106a657600290506106ab565b600390505b919050565b3373ffffffffffffffffffffffffffffffffffffffff1660008054906101000a900473ffffffffffffffffffffffffffffffffffffffff1673ffffffffffffffffffffffffffffffffffffffff161461073e576040517f08c379a0000000000000000000000000000000000000000000000000000000008152600401610735906114b9565b60405180910390fd5b6000600281111561075257610751610e2e565b5b600060149054906101000a900460ff16600281111561077457610773610e2e565b5b146107b4576040517f08c379a00000000000000000000000000000000000000000000000000000000081526004016107ab90611525565b60405180910390fd5b60405180606001604052806005548152602001828152602001600081525060016000600554815260200190815260200160002060008201518160000155602082015181600101908051906020019061080d929190610d14565b50604082015181600201559050506005600081548092919061082e906113c5565b919050555050565b60008054906101000a900473ffffffffffffffffffffffffffffffffffffffff1673ffffffffffffffffffffffffffffffffffffffff163373ffffffffffffffffffffffffffffffffffffffff161461088e57600080fd5b600160028111156108a2576108a1610e2e565b5b600060149054906101000a900460ff1660028111156108c4576108c3610e2e565b5b146108ce57600080fd5b6002600060146101000a81548160ff021916908360028111156108f4576108f3610e2e565b5b0217905550565b60008054906101000a900473ffffffffffffffffffffffffffffffffffffffff1673ffffffffffffffffffffffffffffffffffffffff163373ffffffffffffffffffffffffffffffffffffffff161461095357600080fd5b6000600281111561096757610966610e2e565b5b600060149054906101000a900460ff16600281111561098957610988610e2e565b5b1461099357600080fd5b6001600060146101000a81548160ff021916908360028111156109b9576109b8610e2e565b5b0217905550565b60008082101580156109d3575060065482105b610a12576040517f08c379a0000000000000000000000000000000000000000000000000000000008152600401610a0990611591565b60405180910390fd5b6003600083815260200190815260200160002060010160009054906101000a900473ffffffffffffffffffffffffffffffffffffffff169050919050565b60008054906101000a900473ffffffffffffffffffffffffffffffffffffffff1681565b60065481565b3373ffffffffffffffffffffffffffffffffffffffff1660008054906101000a900473ffffffffffffffffffffffffffffffffffffffff1673ffffffffffffffffffffffffffffffffffffffff1614610b08576040517f08c379a0000000000000000000000000000000000000000000000000000000008152600401610aff906115fd565b60405180910390fd5b600460008273ffffffffffffffffffffffffffffffffffffffff1673ffffffffffffffffffffffffffffffffffffffff16815260200190815260200160002060009054906101000a900460ff1615610b95576040517f08c379a0000000000000000000000000000000000000000000000000000000008152600401610b8c90611669565b60405180910390fd5b60006002811115610ba957610ba8610e2e565b5b600060149054906101000a900460ff166002811115610bcb57610bca610e2e565b5b14610c0b576040517f08c379a0000000000000000000000000000000000000000000000000000000008152600401610c02906116fb565b60405180910390fd5b604051806040016040528060065481526020018273ffffffffffffffffffffffffffffffffffffffff168152506003600060065481526020019081526020016000206000820151816000015560208201518160010160006101000a81548173ffffffffffffffffffffffffffffffffffffffff021916908373ffffffffffffffffffffffffffffffffffffffff16021790555090505060066000815480929190610cb4906113c5565b91905055506001600460008373ffffffffffffffffffffffffffffffffffffffff1673ffffffffffffffffffffffffffffffffffffffff16815260200190815260200160002060006101000a81548160ff02191690831515021790555050565b828054610d209061143c565b90600052602060002090601f016020900481019282610d425760008555610d89565b82601f10610d5b57805160ff1916838001178555610d89565b82800160010185558215610d89579182015b82811115610d88578251825591602001919060010190610d6d565b5b509050610d969190610d9a565b5090565b5b80821115610db3576000816000905550600101610d9b565b5090565b6000604051905090565b600080fd5b600080fd5b6000819050919050565b610dde81610dcb565b8114610de957600080fd5b50565b600081359050610dfb81610dd5565b92915050565b600060208284031215610e1757610e16610dc1565b5b6000610e2584828501610dec565b91505092915050565b7f4e487b7100000000000000000000000000000000000000000000000000000000600052602160045260246000fd5b60038110610e6e57610e6d610e2e565b5b50565b6000819050610e7f82610e5d565b919050565b6000610e8f82610e71565b9050919050565b610e9f81610e84565b82525050565b6000602082019050610eba6000830184610e96565b92915050565b600081519050919050565b600082825260208201905092915050565b60005b83811015610efa578082015181840152602081019050610edf565b83811115610f09576000848401525b50505050565b6000601f19601f8301169050919050565b6000610f2b82610ec0565b610f358185610ecb565b9350610f45818560208601610edc565b610f4e81610f0f565b840191505092915050565b610f6281610dcb565b82525050565b60006040820190508181036000830152610f828185610f20565b9050610f916020830184610f59565b9392505050565b6000602082019050610fad6000830184610f59565b92915050565b600073ffffffffffffffffffffffffffffffffffffffff82169050919050565b6000610fde82610fb3565b9050919050565b610fee81610fd3565b8114610ff957600080fd5b50565b60008135905061100b81610fe5565b92915050565b60006020828403121561102757611026610dc1565b5b600061103584828501610ffc565b91505092915050565b600080fd5b600080fd5b7f4e487b7100000000000000000000000000000000000000000000000000000000600052604160045260246000fd5b61108082610f0f565b810181811067ffffffffffffffff8211171561109f5761109e611048565b5b80604052505050565b60006110b2610db7565b90506110be8282611077565b919050565b600067ffffffffffffffff8211156110de576110dd611048565b5b6110e782610f0f565b9050602081019050919050565b82818337600083830152505050565b6000611116611111846110c3565b6110a8565b90508281526020810184848401111561113257611131611043565b5b61113d8482856110f4565b509392505050565b600082601f83011261115a5761115961103e565b5b813561116a848260208601611103565b91505092915050565b60006020828403121561118957611188610dc1565b5b600082013567ffffffffffffffff8111156111a7576111a6610dc6565b5b6111b384828501611145565b91505092915050565b6111c581610fd3565b82525050565b60006020820190506111e060008301846111bc565b92915050565b7f456c656374696f6e206973206e6f7420696e2070726f67726573730000000000600082015250565b600061121c601b83610ecb565b9150611227826111e6565b602082019050919050565b6000602082019050818103600083015261124b8161120f565b9050919050565b7f4e6f6e20617574686f726973656420757365722063616e6e6f7420766f746500600082015250565b6000611288601f83610ecb565b915061129382611252565b602082019050919050565b600060208201905081810360008301526112b78161127b565b9050919050565b7f596f75206861766520616c726561647920766f74656400000000000000000000600082015250565b60006112f4601683610ecb565b91506112ff826112be565b602082019050919050565b60006020820190508181036000830152611323816112e7565b9050919050565b7f496e76616c69642063616e646964617465204944000000000000000000000000600082015250565b6000611360601483610ecb565b915061136b8261132a565b602082019050919050565b6000602082019050818103600083015261138f81611353565b9050919050565b7f4e487b7100000000000000000000000000000000000000000000000000000000600052601160045260246000fd5b60006113d082610dcb565b91507fffffffffffffffffffffffffffffffffffffffffffffffffffffffffffffffff820361140257611401611396565b5b600182019050919050565b7f4e487b7100000000000000000000000000000000000000000000000000000000600052602260045260246000fd5b6000600282049050600182168061145457607f821691505b6020821081036114675761146661140d565b5b50919050565b7f4f6e6c79206f776e65722063616e206164642063616e64696461746573000000600082015250565b60006114a3601d83610ecb565b91506114ae8261146d565b602082019050919050565b600060208201905081810360008301526114d281611496565b9050919050565b7f456c656374696f6e2068617320616c7265616479207374617274656400000000600082015250565b600061150f601c83610ecb565b915061151a826114d9565b602082019050919050565b6000602082019050818103600083015261153e81611502565b9050919050565b7f496e76616c696420766f74657220494400000000000000000000000000000000600082015250565b600061157b601083610ecb565b915061158682611545565b602082019050919050565b600060208201905081810360008301526115aa8161156e565b9050919050565b7f4f6e6c79206f776e65722063616e2061646420766f7465720000000000000000600082015250565b60006115e7601883610ecb565b91506115f2826115b1565b602082019050919050565b60006020820190508181036000830152611616816115da565b9050919050565b7f566f74657220616c726561647920616464656400000000000000000000000000600082015250565b6000611653601383610ecb565b915061165e8261161d565b602082019050919050565b6000602082019050818103600083015261168281611646565b9050919050565b7f566f7465722063616e277420626520616464656420616674657220656c65637460008201527f696f6e2073746172746564000000000000000000000000000000000000000000602082015250565b60006116e5602b83610ecb565b91506116f082611689565b604082019050919050565b60006020820190508181036000830152611714816116d8565b905091905056fea2646970667358221220a39b50273009945fa81b16d0a61100afe5005cf9a5cad078cb3f9d2770a76d5164736f6c634300080e0033",
  "immutableReferences": {},
  "source": "// SPDX-License-Identifier: MIT\r\npragma solidity >=0.4.0 <0.9.0;\r\n\r\ncontract Election {\r\n    enum State {\r\n        NotStarted,\r\n        InProgress,\r\n        Ended\r\n    }\r\n\r\n    struct Candidate {\r\n        uint256 id;\r\n        string name;\r\n        uint256 voteCount;\r\n    }\r\n\r\n    address public owner;\r\n    State public electionState;\r\n\r\n    struct Voter {\r\n        uint256 id;\r\n        address name;\r\n    }\r\n\r\n    mapping(uint256 => Candidate) candidates;\r\n    mapping(address => bool) voted;\r\n\r\n    mapping(uint256 => Voter) voters;\r\n    mapping(address => bool) isVoter;\r\n\r\n    uint256 public candidatesCount = 0;\r\n\r\n    uint256 public votersCount = 0;\r\n\r\n    constructor() {\r\n        owner = msg.sender;\r\n        electionState = State.NotStarted;\r\n        addCandidate(\"Benjamin Netanyahu\");\r\n        addCandidate(\"Yair Lapid\");\r\n    }\r\n\r\n    event Voted(uint256 indexed _candidateId);\r\n\r\n    function startElection() public {\r\n        require(msg.sender == owner);\r\n        require(electionState == State.NotStarted);\r\n        electionState = State.InProgress;\r\n    }\r\n\r\n    function endElection() public {\r\n        require(msg.sender == owner);\r\n        require(electionState == State.InProgress);\r\n        electionState = State.Ended;\r\n    }\r\n\r\n    function addCandidate(string memory _name) public {\r\n        require(owner == msg.sender, \"Only owner can add candidates\");\r\n        require(\r\n            electionState == State.NotStarted,\r\n            \"Election has already started\"\r\n        );\r\n\r\n        candidates[candidatesCount] = Candidate(candidatesCount, _name, 0);\r\n        candidatesCount++;\r\n    }\r\n\r\n    function addVoter(address _voter) public {\r\n        require(owner == msg.sender, \"Only owner can add voter\");\r\n        require(!isVoter[_voter], \"Voter already added\");\r\n        require(\r\n            electionState == State.NotStarted,\r\n            \"Voter can't be added after election started\"\r\n        );\r\n        voters[votersCount] = Voter(votersCount, _voter);\r\n        votersCount++;\r\n        isVoter[_voter] = true;\r\n    }\r\n\r\n    function getRole(address _current) public view returns (uint256) {\r\n        if (owner == _current) {\r\n            return 1;\r\n        } else if (isVoter[_current]) {\r\n            return 2;\r\n        } else {\r\n            return 3;\r\n        }\r\n    }\r\n\r\n    function vote(uint256 _candidateId) public {\r\n        require(\r\n            electionState == State.InProgress,\r\n            \"Election is not in progress\"\r\n        );\r\n        require(isVoter[msg.sender], \"Non authorised user cannot vote\");\r\n        require(!voted[msg.sender], \"You have already voted\");\r\n        require(\r\n            _candidateId >= 0 && _candidateId < candidatesCount,\r\n            \"Invalid candidate ID\"\r\n        );\r\n\r\n        candidates[_candidateId].voteCount++;\r\n        voted[msg.sender] = true;\r\n\r\n        emit Voted(_candidateId);\r\n    }\r\n\r\n    function getCandidateDetails(uint256 _candidateId)\r\n        public\r\n        view\r\n        returns (string memory, uint256)\r\n    {\r\n        require(\r\n            _candidateId >= 0 && _candidateId < candidatesCount,\r\n            \"Invalid candidate ID\"\r\n        );\r\n        return (\r\n            candidates[_candidateId].name,\r\n            candidates[_candidateId].voteCount\r\n        );\r\n    }\r\n\r\n        function getVoterDetails(uint256 _voterId)\r\n        public\r\n        view\r\n        returns (address voter)\r\n    {\r\n        require(\r\n            _voterId >= 0 && _voterId < votersCount,\r\n            \"Invalid voter ID\"\r\n        );\r\n        return (\r\n            voters[_voterId].name\r\n        );\r\n    }\r\n\r\n}",
  "sourcePath": "C:\\Users\\maorr\\Desktop\\with voters list\\Election2022\\contracts\\Voting.sol",
  "compiler": {
    "name": "solc",
    "version": "0.8.14+commit.80d49f37.Emscripten.clang"
  },
  "schemaVersion": "3.4.14",
  "updatedAt": "2023-07-31T15:08:56.025Z",
  "networkType": "ethereum",
  "devdoc": {
    "kind": "dev",
    "methods": {},
    "version": 1
  },
  "userdoc": {
    "kind": "user",
    "methods": {},
    "version": 1
  }
}